{
  "transactions": [
    {
      "hash": "0x125b3ed1af5f4e44fd58480b705741fe3ce407ae96c3ad5b34f4748810e7e59a",
      "transactionType": "CREATE",
      "contractName": "CounterV2",
      "contractAddress": "0x2150fa7a7d5f1bcf18e688ed9e8d7f702c275b59",
      "function": null,
      "arguments": null,
      "transaction": {
        "from": "0x4195ab1c8cc78983c8152a9bb22b2334661dd513",
        "gas": "0x14d2f4",
        "value": "0x0",
        "input": "0x60a06040523060805234801561001457600080fd5b5061001d610022565b6100d4565b7ff0c57e16840df040f15088dc2f81fe391c3923bec73e23a9662efc9c229c6a00805468010000000000000000900460ff16156100725760405163f92ee8a960e01b815260040160405180910390fd5b80546001600160401b03908116146100d15780546001600160401b0319166001600160401b0390811782556040519081527fc7f505b2f371ae2175ee4913f4499e1f2633a7b5936321eed1cdaeb6115181d29060200160405180910390a15b50565b608051610aea6100fd6000396000818161041b01528181610444015261058a0152610aea6000f3fe6080604052600436106100915760003560e01c8063a87d942c11610059578063a87d942c14610144578063ad3cb1cc14610159578063d09de08a14610197578063d826f88f146101ac578063f2fde38b146101c157600080fd5b80634f1ef2861461009657806352d1902d146100ab578063715018a6146100d35780638129fc1c146100e85780638da5cb5b146100fd575b600080fd5b6100a96100a436600461090a565b6101e1565b005b3480156100b757600080fd5b506100c0610200565b6040519081526020015b60405180910390f35b3480156100df57600080fd5b506100a961021d565b3480156100f457600080fd5b506100a9610231565b34801561010957600080fd5b507f9016d09d72d40fdae2fd8ceac6b6234c7706214fd39c1cd1e609a0528c199300546040516001600160a01b0390911681526020016100ca565b34801561015057600080fd5b506000546100c0565b34801561016557600080fd5b5061018a604051806040016040528060058152602001640352e302e360dc1b81525081565b6040516100ca91906109f0565b3480156101a357600080fd5b506100a9610348565b3480156101b857600080fd5b506100a9610398565b3480156101cd57600080fd5b506100a96101dc366004610a23565b6103cd565b6101e9610410565b6101f2826104b5565b6101fc82826104bd565b5050565b600061020a61057f565b50600080516020610a9583398151915290565b6102256105c8565b61022f6000610623565b565b7ff0c57e16840df040f15088dc2f81fe391c3923bec73e23a9662efc9c229c6a008054600160401b810460ff16159067ffffffffffffffff166000811580156102775750825b905060008267ffffffffffffffff1660011480156102945750303b155b9050811580156102a2575080155b156102c05760405163f92ee8a960e01b815260040160405180910390fd5b845467ffffffffffffffff1916600117855583156102ea57845460ff60401b1916600160401b1785555b6102f333610694565b6102fb6106a5565b831561034157845460ff60401b19168555604051600181527fc7f505b2f371ae2175ee4913f4499e1f2633a7b5936321eed1cdaeb6115181d29060200160405180910390a15b5050505050565b600160008082825461035a9190610a3e565b90915550506000546040519081527f0ef4482aceb854636f33f9cd319f9e1cd6fe3aa2e60523f3583c287b89382445906020015b60405180910390a1565b60008080556040519081527f0ef4482aceb854636f33f9cd319f9e1cd6fe3aa2e60523f3583c287b893824459060200161038e565b6103d56105c8565b6001600160a01b03811661040457604051631e4fbdf760e01b8152600060048201526024015b60405180910390fd5b61040d81610623565b50565b306001600160a01b037f000000000000000000000000000000000000000000000000000000000000000016148061049757507f00000000000000000000000000000000000000000000000000000000000000006001600160a01b031661048b600080516020610a95833981519152546001600160a01b031690565b6001600160a01b031614155b1561022f5760405163703e46dd60e11b815260040160405180910390fd5b61040d6105c8565b816001600160a01b03166352d1902d6040518163ffffffff1660e01b8152600401602060405180830381865afa925050508015610517575060408051601f3d908101601f1916820190925261051491810190610a5f565b60015b61053f57604051634c9c8ce360e01b81526001600160a01b03831660048201526024016103fb565b600080516020610a95833981519152811461057057604051632a87526960e21b8152600481018290526024016103fb565b61057a83836106ad565b505050565b306001600160a01b037f0000000000000000000000000000000000000000000000000000000000000000161461022f5760405163703e46dd60e11b815260040160405180910390fd5b336105fa7f9016d09d72d40fdae2fd8ceac6b6234c7706214fd39c1cd1e609a0528c199300546001600160a01b031690565b6001600160a01b03161461022f5760405163118cdaa760e01b81523360048201526024016103fb565b7f9016d09d72d40fdae2fd8ceac6b6234c7706214fd39c1cd1e609a0528c19930080546001600160a01b031981166001600160a01b03848116918217845560405192169182907f8be0079c531659141344cd1fd0a4f28419497f9722a3daafe3b4186f6b6457e090600090a3505050565b61069c610703565b61040d8161074c565b61022f610703565b6106b682610754565b6040516001600160a01b038316907fbc7cd75a20ee27fd9adebab32041f755214dbc6bffa90cc0225b39da2e5c2d3b90600090a28051156106fb5761057a82826107b9565b6101fc610831565b7ff0c57e16840df040f15088dc2f81fe391c3923bec73e23a9662efc9c229c6a0054600160401b900460ff1661022f57604051631afcd79f60e31b815260040160405180910390fd5b6103d5610703565b806001600160a01b03163b60000361078a57604051634c9c8ce360e01b81526001600160a01b03821660048201526024016103fb565b600080516020610a9583398151915280546001600160a01b0319166001600160a01b0392909216919091179055565b6060600080846001600160a01b0316846040516107d69190610a78565b600060405180830381855af49150503d8060008114610811576040519150601f19603f3d011682016040523d82523d6000602084013e610816565b606091505b5091509150610826858383610850565b925050505b92915050565b341561022f5760405163b398979f60e01b815260040160405180910390fd5b60608261086557610860826108af565b6108a8565b815115801561087c57506001600160a01b0384163b155b156108a557604051639996b31560e01b81526001600160a01b03851660048201526024016103fb565b50805b9392505050565b8051156108bf5780518082602001fd5b60405163d6bda27560e01b815260040160405180910390fd5b80356001600160a01b03811681146108ef57600080fd5b919050565b634e487b7160e01b600052604160045260246000fd5b6000806040838503121561091d57600080fd5b610926836108d8565b9150602083013567ffffffffffffffff8082111561094357600080fd5b818501915085601f83011261095757600080fd5b813581811115610969576109696108f4565b604051601f8201601f19908116603f01168101908382118183101715610991576109916108f4565b816040528281528860208487010111156109aa57600080fd5b8260208601602083013760006020848301015280955050505050509250929050565b60005b838110156109e75781810151838201526020016109cf565b50506000910152565b6020815260008251806020840152610a0f8160408501602087016109cc565b601f01601f19169190910160400192915050565b600060208284031215610a3557600080fd5b6108a8826108d8565b8082018082111561082b57634e487b7160e01b600052601160045260246000fd5b600060208284031215610a7157600080fd5b5051919050565b60008251610a8a8184602087016109cc565b919091019291505056fe360894a13ba1a3210667c828492db98dca3e2076cc3735a920a3ca505d382bbca26469706673582212202e4ee7138ac3d84bab429ddd2a50bf162379528688c02e44b72c02ce075885c164736f6c63430008180033",
        "nonce": "0x22",
        "chainId": "0x14a34"
      },
      "additionalContracts": [],
      "isFixedGasLimit": false
    },
    {
      "hash": "0x577eebf2c9e42c85695bbdd59c0d3149d254c5b4633aec767ecfbe98c262e67c",
      "transactionType": "CALL",
      "contractName": null,
      "contractAddress": "0x4cfb8306c5fba5e574ac11d84895d5ad92156a86",
      "function": "upgradeToAndCall(address,bytes)",
      "arguments": [
        "0x2150fa7A7d5f1bCF18e688ed9e8d7f702c275b59",
        "0x"
      ],
      "transaction": {
        "from": "0x4195ab1c8cc78983c8152a9bb22b2334661dd513",
        "to": "0x4cfb8306c5fba5e574ac11d84895d5ad92156a86",
        "gas": "0x137f2",
        "value": "0x0",
        "input": "0x4f1ef2860000000000000000000000002150fa7a7d5f1bcf18e688ed9e8d7f702c275b5900000000000000000000000000000000000000000000000000000000000000400000000000000000000000000000000000000000000000000000000000000000",
        "nonce": "0x23",
        "chainId": "0x14a34"
      },
      "additionalContracts": [],
      "isFixedGasLimit": false
    },
    {
      "hash": "0x24c2546ba16d210e4672aa8008e7936a7be7458935da0bbc0d04e037ef96a1e2",
      "transactionType": "CALL",
      "contractName": null,
      "contractAddress": "0x4cfb8306c5fba5e574ac11d84895d5ad92156a86",
      "function": "increment()",
      "arguments": [],
      "transaction": {
        "from": "0x4195ab1c8cc78983c8152a9bb22b2334661dd513",
        "to": "0x4cfb8306c5fba5e574ac11d84895d5ad92156a86",
        "gas": "0x19ae2",
        "value": "0x0",
        "input": "0xd09de08a",
        "nonce": "0x24",
        "chainId": "0x14a34"
      },
      "additionalContracts": [],
      "isFixedGasLimit": false
    },
    {
      "hash": "0xbd73c88573896d9cacab58f1b7d8f23dd11ab45c2bdb9da6253a9f2b8ff73991",
      "transactionType": "CALL",
      "contractName": null,
      "contractAddress": "0x4cfb8306c5fba5e574ac11d84895d5ad92156a86",
      "function": "reset()",
      "arguments": [],
      "transaction": {
        "from": "0x4195ab1c8cc78983c8152a9bb22b2334661dd513",
        "to": "0x4cfb8306c5fba5e574ac11d84895d5ad92156a86",
        "gas": "0xe3c2",
        "value": "0x0",
        "input": "0xd826f88f",
        "nonce": "0x25",
        "chainId": "0x14a34"
      },
      "additionalContracts": [],
      "isFixedGasLimit": false
    }
  ],
  "receipts": [
    {
      "status": "0x1",
      "cumulativeGasUsed": "0x207297",
      "logs": [
        {
          "address": "0x2150fa7a7d5f1bcf18e688ed9e8d7f702c275b59",
          "topics": [
            "0xc7f505b2f371ae2175ee4913f4499e1f2633a7b5936321eed1cdaeb6115181d2"
          ],
          "data": "0x000000000000000000000000000000000000000000000000ffffffffffffffff",
          "blockHash": "0x51bc1aeb835b9cdbde45d14f0592242434032f377c2b7b29d8be3e6b5cb70549",
          "blockNumber": "0x108ce13",
          "transactionHash": "0x125b3ed1af5f4e44fd58480b705741fe3ce407ae96c3ad5b34f4748810e7e59a",
          "transactionIndex": "0xb",
          "logIndex": "0xa",
          "removed": false
        }
      ],
      "logsBloom": "0x00000000000000000000000000000000000000000000000000000000000000000000000000000000000000000000000000000000000000000000000000000000000000000000000000000000000000000000000000000000000000000100000000000000000000000000000000000000000000000000000000000000000000000000000000000000000800000000000000000000000080000000000000000000000000000002000000000000040000000000000000000000000000000000000000000000000000000000000000000000000000000004000000000000000000000000000000000000000000000000000000000000000000000000000000000000",
      "type": "0x2",
      "transactionHash": "0x125b3ed1af5f4e44fd58480b705741fe3ce407ae96c3ad5b34f4748810e7e59a",
      "transactionIndex": "0xb",
      "blockHash": "0x51bc1aeb835b9cdbde45d14f0592242434032f377c2b7b29d8be3e6b5cb70549",
      "blockNumber": "0x108ce13",
      "gasUsed": "0xa6a3a",
      "effectiveGasPrice": "0xf43cf",
      "from": "0x4195ab1c8cc78983c8152a9bb22b2334661dd513",
      "to": null,
      "contractAddress": "0x2150fa7a7d5f1bcf18e688ed9e8d7f702c275b59",
      "l1BaseFeeScalar": "0x44d",
      "l1BlobBaseFee": "0x1",
      "l1BlobBaseFeeScalar": "0xa118b",
      "l1Fee": "0x31abb9ed5",
      "l1GasPrice": "0x19097ef4",
      "l1GasUsed": "0x709e"
    },
    {
      "status": "0x1",
      "cumulativeGasUsed": "0x5d4550",
      "logs": [
        {
          "address": "0x4cfb8306c5fba5e574ac11d84895d5ad92156a86",
          "topics": [
            "0xbc7cd75a20ee27fd9adebab32041f755214dbc6bffa90cc0225b39da2e5c2d3b",
            "0x0000000000000000000000002150fa7a7d5f1bcf18e688ed9e8d7f702c275b59"
          ],
          "data": "0x",
          "blockHash": "0x51bc1aeb835b9cdbde45d14f0592242434032f377c2b7b29d8be3e6b5cb70549",
          "blockNumber": "0x108ce13",
          "transactionHash": "0x577eebf2c9e42c85695bbdd59c0d3149d254c5b4633aec767ecfbe98c262e67c",
          "transactionIndex": "0x10",
          "logIndex": "0x1a",
          "removed": false
        }
      ],
      "logsBloom": "0x00000000000000000000000000000000400000000000000000000000000000000000000000000000000000000000000000000000000000000000000080040000000000000000000000000000000002000000000002000000000000000080000000000000000000000000000000000000000000000000000000200000000000000000000000000000000000000000000000000000000000000000000000020000000000000000000000000000000000000000000000000000000000000000000000000020000000000000000000000000000000000000000000000000000000000000000000000000000000000000000000000000000000000000000000000000",
      "type": "0x2",
      "transactionHash": "0x577eebf2c9e42c85695bbdd59c0d3149d254c5b4633aec767ecfbe98c262e67c",
      "transactionIndex": "0x10",
      "blockHash": "0x51bc1aeb835b9cdbde45d14f0592242434032f377c2b7b29d8be3e6b5cb70549",
      "blockNumber": "0x108ce13",
      "gasUsed": "0x92cd",
      "effectiveGasPrice": "0xf43cf",
      "from": "0x4195ab1c8cc78983c8152a9bb22b2334661dd513",
      "to": "0x4cfb8306c5fba5e574ac11d84895d5ad92156a86",
      "contractAddress": null,
      "l1BaseFeeScalar": "0x44d",
      "l1BlobBaseFee": "0x1",
      "l1BlobBaseFeeScalar": "0xa118b",
      "l1Fee": "0x2c1af810",
      "l1GasPrice": "0x19097ef4",
      "l1GasUsed": "0x640"
    },
    {
      "status": "0x1",
      "cumulativeGasUsed": "0x64aa68",
      "logs": [
        {
          "address": "0x4cfb8306c5fba5e574ac11d84895d5ad92156a86",
          "topics": [
            "0x0ef4482aceb854636f33f9cd319f9e1cd6fe3aa2e60523f3583c287b89382445"
          ],
          "data": "0x0000000000000000000000000000000000000000000000000000000000000001",
          "blockHash": "0x51bc1aeb835b9cdbde45d14f0592242434032f377c2b7b29d8be3e6b5cb70549",
          "blockNumber": "0x108ce13",
          "transactionHash": "0x24c2546ba16d210e4672aa8008e7936a7be7458935da0bbc0d04e037ef96a1e2",
          "transactionIndex": "0x12",
          "logIndex": "0x1d",
          "removed": false
        }
      ],
      "logsBloom": "0x00000000000000000000000000000000000000000000000000000000000000000000000000000000000000000000000000000000000000000000000000040000000000000000000000000000000000000000000000000000000000000080000000000000000000000000000000000000000000000000000000000200000000000000000000000000000000000000000000000000000000000000000000020000000000000000000000000000000000000000000000000000000000000000000000000000000000000000000000000008000000000000000000000000000000001000000000000000000000000000000000000000000000000000000000000000",
      "type": "0x2",
      "transactionHash": "0x24c2546ba16d210e4672aa8008e7936a7be7458935da0bbc0d04e037ef96a1e2",
      "transactionIndex": "0x12",
      "blockHash": "0x51bc1aeb835b9cdbde45d14f0592242434032f377c2b7b29d8be3e6b5cb70549",
      "blockNumber": "0x108ce13",
      "gasUsed": "0xc15c",
      "effectiveGasPrice": "0xf43cf",
      "from": "0x4195ab1c8cc78983c8152a9bb22b2334661dd513",
      "to": "0x4cfb8306c5fba5e574ac11d84895d5ad92156a86",
      "contractAddress": null,
      "l1BaseFeeScalar": "0x44d",
      "l1BlobBaseFee": "0x1",
      "l1BlobBaseFeeScalar": "0xa118b",
      "l1Fee": "0x2c1af810",
      "l1GasPrice": "0x19097ef4",
      "l1GasUsed": "0x640"
    },
    {
      "status": "0x1",
      "cumulativeGasUsed": "0x651597",
      "logs": [
        {
          "address": "0x4cfb8306c5fba5e574ac11d84895d5ad92156a86",
          "topics": [
            "0x0ef4482aceb854636f33f9cd319f9e1cd6fe3aa2e60523f3583c287b89382445"
          ],
          "data": "0x0000000000000000000000000000000000000000000000000000000000000000",
          "blockHash": "0x51bc1aeb835b9cdbde45d14f0592242434032f377c2b7b29d8be3e6b5cb70549",
          "blockNumber": "0x108ce13",
          "transactionHash": "0xbd73c88573896d9cacab58f1b7d8f23dd11ab45c2bdb9da6253a9f2b8ff73991",
          "transactionIndex": "0x13",
          "logIndex": "0x1e",
          "removed": false
        }
      ],
      "logsBloom": "0x00000000000000000000000000000000000000000000000000000000000000000000000000000000000000000000000000000000000000000000000000040000000000000000000000000000000000000000000000000000000000000080000000000000000000000000000000000000000000000000000000000200000000000000000000000000000000000000000000000000000000000000000000020000000000000000000000000000000000000000000000000000000000000000000000000000000000000000000000000008000000000000000000000000000000001000000000000000000000000000000000000000000000000000000000000000",
      "type": "0x2",
      "transactionHash": "0xbd73c88573896d9cacab58f1b7d8f23dd11ab45c2bdb9da6253a9f2b8ff73991",
      "transactionIndex": "0x13",
      "blockHash": "0x51bc1aeb835b9cdbde45d14f0592242434032f377c2b7b29d8be3e6b5cb70549",
      "blockNumber": "0x108ce13",
      "gasUsed": "0x6b2f",
      "effectiveGasPrice": "0xf43cf",
      "from": "0x4195ab1c8cc78983c8152a9bb22b2334661dd513",
      "to": "0x4cfb8306c5fba5e574ac11d84895d5ad92156a86",
      "contractAddress": null,
      "l1BaseFeeScalar": "0x44d",
      "l1BlobBaseFee": "0x1",
      "l1BlobBaseFeeScalar": "0xa118b",
      "l1Fee": "0x2c1af810",
      "l1GasPrice": "0x19097ef4",
      "l1GasUsed": "0x640"
    }
  ],
  "libraries": [],
  "pending": [],
  "returns": {},
  "timestamp": 1730476812,
  "chain": 84532,
  "commit": "96c3717"
}